{
  "_format": "hh-sol-artifact-1",
  "contractName": "NFTMarketPlace",
  "sourceName": "contracts/NFTMarketPlace.sol",
  "abi": [
    {
      "inputs": [],
      "stateMutability": "nonpayable",
      "type": "constructor"
    },
    {
      "anonymous": false,
      "inputs": [
        {
          "indexed": true,
          "internalType": "address",
          "name": "owner",
          "type": "address"
        },
        {
          "indexed": true,
          "internalType": "address",
          "name": "approved",
          "type": "address"
        },
        {
          "indexed": true,
          "internalType": "uint256",
          "name": "tokenId",
          "type": "uint256"
        }
      ],
      "name": "Approval",
      "type": "event"
    },
    {
      "anonymous": false,
      "inputs": [
        {
          "indexed": true,
          "internalType": "address",
          "name": "owner",
          "type": "address"
        },
        {
          "indexed": true,
          "internalType": "address",
          "name": "operator",
          "type": "address"
        },
        {
          "indexed": false,
          "internalType": "bool",
          "name": "approved",
          "type": "bool"
        }
      ],
      "name": "ApprovalForAll",
      "type": "event"
    },
    {
      "anonymous": false,
      "inputs": [
        {
          "indexed": true,
          "internalType": "address",
          "name": "from",
          "type": "address"
        },
        {
          "indexed": true,
          "internalType": "address",
          "name": "to",
          "type": "address"
        },
        {
          "indexed": true,
          "internalType": "uint256",
          "name": "tokenId",
          "type": "uint256"
        }
      ],
      "name": "Transfer",
      "type": "event"
    },
    {
      "inputs": [
        {
          "internalType": "uint256",
          "name": "tokenId",
          "type": "uint256"
        }
      ],
      "name": "SaleNFT",
      "outputs": [],
      "stateMutability": "payable",
      "type": "function"
    },
    {
      "inputs": [
        {
          "internalType": "address",
          "name": "to",
          "type": "address"
        },
        {
          "internalType": "uint256",
          "name": "tokenId",
          "type": "uint256"
        }
      ],
      "name": "approve",
      "outputs": [],
      "stateMutability": "nonpayable",
      "type": "function"
    },
    {
      "inputs": [
        {
          "internalType": "address",
          "name": "owner",
          "type": "address"
        }
      ],
      "name": "balanceOf",
      "outputs": [
        {
          "internalType": "uint256",
          "name": "",
          "type": "uint256"
        }
      ],
      "stateMutability": "view",
      "type": "function"
    },
    {
      "inputs": [
        {
          "internalType": "string",
          "name": "tokenURI",
          "type": "string"
        },
        {
          "internalType": "uint256",
          "name": "price",
          "type": "uint256"
        }
      ],
      "name": "createNFTToken",
      "outputs": [
        {
          "internalType": "uint256",
          "name": "",
          "type": "uint256"
        }
      ],
      "stateMutability": "payable",
      "type": "function"
    },
    {
      "inputs": [],
      "name": "getAllNFTs",
      "outputs": [
        {
          "components": [
            {
              "internalType": "uint256",
              "name": "tokenId",
              "type": "uint256"
            },
            {
              "internalType": "address payable",
              "name": "owner",
              "type": "address"
            },
            {
              "internalType": "address payable",
              "name": "seller",
              "type": "address"
            },
            {
              "internalType": "uint256",
              "name": "price",
              "type": "uint256"
            },
            {
              "internalType": "bool",
              "name": "status",
              "type": "bool"
            }
          ],
          "internalType": "struct NFTMarketPlace.TokenProperties[]",
          "name": "",
          "type": "tuple[]"
        }
      ],
      "stateMutability": "view",
      "type": "function"
    },
    {
      "inputs": [
        {
          "internalType": "uint256",
          "name": "tokenId",
          "type": "uint256"
        }
      ],
      "name": "getApproved",
      "outputs": [
        {
          "internalType": "address",
          "name": "",
          "type": "address"
        }
      ],
      "stateMutability": "view",
      "type": "function"
    },
    {
      "inputs": [
        {
          "internalType": "address",
          "name": "pubkey",
          "type": "address"
        }
      ],
      "name": "getMyNFTs",
      "outputs": [
        {
          "components": [
            {
              "internalType": "uint256",
              "name": "tokenId",
              "type": "uint256"
            },
            {
              "internalType": "address payable",
              "name": "owner",
              "type": "address"
            },
            {
              "internalType": "address payable",
              "name": "seller",
              "type": "address"
            },
            {
              "internalType": "uint256",
              "name": "price",
              "type": "uint256"
            },
            {
              "internalType": "bool",
              "name": "status",
              "type": "bool"
            }
          ],
          "internalType": "struct NFTMarketPlace.TokenProperties[]",
          "name": "",
          "type": "tuple[]"
        }
      ],
      "stateMutability": "view",
      "type": "function"
    },
    {
      "inputs": [],
      "name": "getNFTPrice",
      "outputs": [
        {
          "internalType": "uint256",
          "name": "",
          "type": "uint256"
        }
      ],
      "stateMutability": "view",
      "type": "function"
    },
    {
      "inputs": [
        {
          "internalType": "uint256",
          "name": "tokenId",
          "type": "uint256"
        }
      ],
      "name": "getTokenURI",
      "outputs": [
        {
          "internalType": "string",
          "name": "",
          "type": "string"
        }
      ],
      "stateMutability": "view",
      "type": "function"
    },
    {
      "inputs": [
        {
          "internalType": "address",
          "name": "owner",
          "type": "address"
        },
        {
          "internalType": "address",
          "name": "operator",
          "type": "address"
        }
      ],
      "name": "isApprovedForAll",
      "outputs": [
        {
          "internalType": "bool",
          "name": "",
          "type": "bool"
        }
      ],
      "stateMutability": "view",
      "type": "function"
    },
    {
      "inputs": [],
      "name": "name",
      "outputs": [
        {
          "internalType": "string",
          "name": "",
          "type": "string"
        }
      ],
      "stateMutability": "view",
      "type": "function"
    },
    {
      "inputs": [
        {
          "internalType": "uint256",
          "name": "tokenId",
          "type": "uint256"
        }
      ],
      "name": "ownerOf",
      "outputs": [
        {
          "internalType": "address",
          "name": "",
          "type": "address"
        }
      ],
      "stateMutability": "view",
      "type": "function"
    },
    {
      "inputs": [
        {
          "internalType": "address",
          "name": "from",
          "type": "address"
        },
        {
          "internalType": "address",
          "name": "to",
          "type": "address"
        },
        {
          "internalType": "uint256",
          "name": "tokenId",
          "type": "uint256"
        }
      ],
      "name": "safeTransferFrom",
      "outputs": [],
      "stateMutability": "nonpayable",
      "type": "function"
    },
    {
      "inputs": [
        {
          "internalType": "address",
          "name": "from",
          "type": "address"
        },
        {
          "internalType": "address",
          "name": "to",
          "type": "address"
        },
        {
          "internalType": "uint256",
          "name": "tokenId",
          "type": "uint256"
        },
        {
          "internalType": "bytes",
          "name": "data",
          "type": "bytes"
        }
      ],
      "name": "safeTransferFrom",
      "outputs": [],
      "stateMutability": "nonpayable",
      "type": "function"
    },
    {
      "inputs": [
        {
          "internalType": "address",
          "name": "operator",
          "type": "address"
        },
        {
          "internalType": "bool",
          "name": "approved",
          "type": "bool"
        }
      ],
      "name": "setApprovalForAll",
      "outputs": [],
      "stateMutability": "nonpayable",
      "type": "function"
    },
    {
      "inputs": [
        {
          "internalType": "bytes4",
          "name": "interfaceId",
          "type": "bytes4"
        }
      ],
      "name": "supportsInterface",
      "outputs": [
        {
          "internalType": "bool",
          "name": "",
          "type": "bool"
        }
      ],
      "stateMutability": "view",
      "type": "function"
    },
    {
      "inputs": [],
      "name": "symbol",
      "outputs": [
        {
          "internalType": "string",
          "name": "",
          "type": "string"
        }
      ],
      "stateMutability": "view",
      "type": "function"
    },
    {
      "inputs": [
        {
          "internalType": "uint256",
          "name": "tokenId",
          "type": "uint256"
        }
      ],
      "name": "tokenURI",
      "outputs": [
        {
          "internalType": "string",
          "name": "",
          "type": "string"
        }
      ],
      "stateMutability": "view",
      "type": "function"
    },
    {
      "inputs": [
        {
          "internalType": "address",
          "name": "from",
          "type": "address"
        },
        {
          "internalType": "address",
          "name": "to",
          "type": "address"
        },
        {
          "internalType": "uint256",
          "name": "tokenId",
          "type": "uint256"
        }
      ],
      "name": "transferFrom",
      "outputs": [],
      "stateMutability": "nonpayable",
      "type": "function"
    },
    {
      "inputs": [
        {
          "internalType": "uint256",
          "name": "price",
          "type": "uint256"
        }
      ],
      "name": "updateNFTPrice",
      "outputs": [],
      "stateMutability": "payable",
      "type": "function"
    }
  ],
  "bytecode": "0x6080604052662386f26fc10000600a553480156200001c57600080fd5b506040518060400160405280600e81526020017f4e46544d61726b6574506c6163650000000000000000000000000000000000008152506040518060400160405280600481526020017f524e46540000000000000000000000000000000000000000000000000000000081525081600090816200009a919062000370565b508060019081620000ac919062000370565b50505033600760006101000a81548173ffffffffffffffffffffffffffffffffffffffff021916908373ffffffffffffffffffffffffffffffffffffffff16021790555062000457565b600081519050919050565b7f4e487b7100000000000000000000000000000000000000000000000000000000600052604160045260246000fd5b7f4e487b7100000000000000000000000000000000000000000000000000000000600052602260045260246000fd5b600060028204905060018216806200017857607f821691505b6020821081036200018e576200018d62000130565b5b50919050565b60008190508160005260206000209050919050565b60006020601f8301049050919050565b600082821b905092915050565b600060088302620001f87fffffffffffffffffffffffffffffffffffffffffffffffffffffffffffffffff82620001b9565b620002048683620001b9565b95508019841693508086168417925050509392505050565b6000819050919050565b6000819050919050565b6000620002516200024b62000245846200021c565b62000226565b6200021c565b9050919050565b6000819050919050565b6200026d8362000230565b620002856200027c8262000258565b848454620001c6565b825550505050565b600090565b6200029c6200028d565b620002a981848462000262565b505050565b5b81811015620002d157620002c560008262000292565b600181019050620002af565b5050565b601f8211156200032057620002ea8162000194565b620002f584620001a9565b8101602085101562000305578190505b6200031d6200031485620001a9565b830182620002ae565b50505b505050565b600082821c905092915050565b6000620003456000198460080262000325565b1980831691505092915050565b600062000360838362000332565b9150826002028217905092915050565b6200037b82620000f6565b67ffffffffffffffff81111562000397576200039662000101565b5b620003a382546200015f565b620003b0828285620002d5565b600060209050601f831160018114620003e85760008415620003d3578287015190505b620003df858262000352565b8655506200044f565b601f198416620003f88662000194565b60005b828110156200042257848901518255600182019150602085019450602081019050620003fb565b868310156200044257848901516200043e601f89168262000332565b8355505b6001600288020188555050505b505050505050565b613c9c80620004676000396000f3fe60806040526004361061011f5760003560e01c80638fade315116100a0578063c87b56dd11610064578063c87b56dd146103e0578063e0391b091461041d578063e921ee6e14610448578063e985e9c514610485578063fb107a4f146104c25761011f565b80638fade3151461031757806395d89b4114610347578063a22cb46514610372578063b0d6af161461039b578063b88d4fde146103b75761011f565b80633bb3a24d116100e75780633bb3a24d1461021b57806342842e0e146102585780636352211e1461028157806370a08231146102be57806379761e1e146102fb5761011f565b806301ffc9a71461012457806306fdde0314610161578063081812fc1461018c578063095ea7b3146101c957806323b872dd146101f2575b600080fd5b34801561013057600080fd5b5061014b6004803603810190610146919061263f565b6104ed565b6040516101589190612687565b60405180910390f35b34801561016d57600080fd5b506101766105cf565b6040516101839190612732565b60405180910390f35b34801561019857600080fd5b506101b360048036038101906101ae919061278a565b610661565b6040516101c091906127f8565b60405180910390f35b3480156101d557600080fd5b506101f060048036038101906101eb919061283f565b6106a7565b005b3480156101fe57600080fd5b506102196004803603810190610214919061287f565b6107be565b005b34801561022757600080fd5b50610242600480360381019061023d919061278a565b61081e565b60405161024f9190612732565b60405180910390f35b34801561026457600080fd5b5061027f600480360381019061027a919061287f565b610878565b005b34801561028d57600080fd5b506102a860048036038101906102a3919061278a565b610898565b6040516102b591906127f8565b60405180910390f35b3480156102ca57600080fd5b506102e560048036038101906102e091906128d2565b61091e565b6040516102f2919061290e565b60405180910390f35b6103156004803603810190610310919061278a565b6109d5565b005b610331600480360381019061032c9190612a5e565b610bfd565b60405161033e919061290e565b60405180910390f35b34801561035357600080fd5b5061035c610dea565b6040516103699190612732565b60405180910390f35b34801561037e57600080fd5b5061039960048036038101906103949190612ae6565b610e7c565b005b6103b560048036038101906103b0919061278a565b610e92565b005b3480156103c357600080fd5b506103de60048036038101906103d99190612bc7565b610f2c565b005b3480156103ec57600080fd5b506104076004803603810190610402919061278a565b610f8e565b6040516104149190612732565b60405180910390f35b34801561042957600080fd5b506104326110a0565b60405161043f9190612da0565b60405180910390f35b34801561045457600080fd5b5061046f600480360381019061046a91906128d2565b611258565b60405161047c9190612da0565b60405180910390f35b34801561049157600080fd5b506104ac60048036038101906104a79190612dc2565b611611565b6040516104b99190612687565b60405180910390f35b3480156104ce57600080fd5b506104d76116a5565b6040516104e4919061290e565b60405180910390f35b60007f80ac58cd000000000000000000000000000000000000000000000000000000007bffffffffffffffffffffffffffffffffffffffffffffffffffffffff1916827bffffffffffffffffffffffffffffffffffffffffffffffffffffffff191614806105b857507f5b5e139f000000000000000000000000000000000000000000000000000000007bffffffffffffffffffffffffffffffffffffffffffffffffffffffff1916827bffffffffffffffffffffffffffffffffffffffffffffffffffffffff1916145b806105c857506105c7826116af565b5b9050919050565b6060600080546105de90612e31565b80601f016020809104026020016040519081016040528092919081815260200182805461060a90612e31565b80156106575780601f1061062c57610100808354040283529160200191610657565b820191906000526020600020905b81548152906001019060200180831161063a57829003601f168201915b5050505050905090565b600061066c82611719565b6004600083815260200190815260200160002060009054906101000a900473ffffffffffffffffffffffffffffffffffffffff169050919050565b60006106b282610898565b90508073ffffffffffffffffffffffffffffffffffffffff168373ffffffffffffffffffffffffffffffffffffffff1603610722576040517f08c379a000000000000000000000000000000000000000000000000000000000815260040161071990612ed4565b60405180910390fd5b8073ffffffffffffffffffffffffffffffffffffffff16610741611764565b73ffffffffffffffffffffffffffffffffffffffff161480610770575061076f8161076a611764565b611611565b5b6107af576040517f08c379a00000000000000000000000000000000000000000000000000000000081526004016107a690612f66565b60405180910390fd5b6107b9838361176c565b505050565b6107cf6107c9611764565b82611825565b61080e576040517f08c379a000000000000000000000000000000000000000000000000000000000815260040161080590612ff8565b60405180910390fd5b6108198383836118ba565b505050565b606061082982611bb3565b610868576040517f08c379a000000000000000000000000000000000000000000000000000000000815260040161085f90613064565b60405180910390fd5b61087182610f8e565b9050919050565b61089383838360405180602001604052806000815250610f2c565b505050565b6000806108a483611bf4565b9050600073ffffffffffffffffffffffffffffffffffffffff168173ffffffffffffffffffffffffffffffffffffffff1603610915576040517f08c379a000000000000000000000000000000000000000000000000000000000815260040161090c906130d0565b60405180910390fd5b80915050919050565b60008073ffffffffffffffffffffffffffffffffffffffff168273ffffffffffffffffffffffffffffffffffffffff160361098e576040517f08c379a000000000000000000000000000000000000000000000000000000000815260040161098590613162565b60405180910390fd5b600360008373ffffffffffffffffffffffffffffffffffffffff1673ffffffffffffffffffffffffffffffffffffffff168152602001908152602001600020549050919050565b6000600b60008381526020019081526020016000209050600115158160040160009054906101000a900460ff16151514610a44576040517f08c379a0000000000000000000000000000000000000000000000000000000008152600401610a3b906131ce565b60405180910390fd5b80600301543414610a8a576040517f08c379a0000000000000000000000000000000000000000000000000000000008152600401610a8190613260565b60405180910390fd5b610ab98160020160009054906101000a900473ffffffffffffffffffffffffffffffffffffffff1633846118ba565b600760009054906101000a900473ffffffffffffffffffffffffffffffffffffffff1673ffffffffffffffffffffffffffffffffffffffff166108fc600a549081150290604051600060405180830381858888f19350505050158015610b23573d6000803e3d6000fd5b508060020160009054906101000a900473ffffffffffffffffffffffffffffffffffffffff1673ffffffffffffffffffffffffffffffffffffffff166108fc349081150290604051600060405180830381858888f19350505050158015610b8e573d6000803e3d6000fd5b50610b996009611c31565b60018160040160006101000a81548160ff021916908315150217905550338160010160006101000a81548173ffffffffffffffffffffffffffffffffffffffff021916908373ffffffffffffffffffffffffffffffffffffffff1602179055505050565b6000600a543414610c43576040517f08c379a0000000000000000000000000000000000000000000000000000000008152600401610c3a906132f2565b60405180910390fd5b60008211610c86576040517f08c379a0000000000000000000000000000000000000000000000000000000008152600401610c7d9061335e565b60405180910390fd5b610c906008611c31565b6000610c9c6008611c47565b9050610ca83382611c55565b610cb28185611c73565b6040518060a001604052808281526020013073ffffffffffffffffffffffffffffffffffffffff1681526020013373ffffffffffffffffffffffffffffffffffffffff16815260200184815260200160011515815250600b60008381526020019081526020016000206000820151816000015560208201518160010160006101000a81548173ffffffffffffffffffffffffffffffffffffffff021916908373ffffffffffffffffffffffffffffffffffffffff16021790555060408201518160020160006101000a81548173ffffffffffffffffffffffffffffffffffffffff021916908373ffffffffffffffffffffffffffffffffffffffff1602179055506060820151816003015560808201518160040160006101000a81548160ff0219169083151502179055509050508091505092915050565b606060018054610df990612e31565b80601f0160208091040260200160405190810160405280929190818152602001828054610e2590612e31565b8015610e725780601f10610e4757610100808354040283529160200191610e72565b820191906000526020600020905b815481529060010190602001808311610e5557829003601f168201915b5050505050905090565b610e8e610e87611764565b8383611ce0565b5050565b3373ffffffffffffffffffffffffffffffffffffffff16600760009054906101000a900473ffffffffffffffffffffffffffffffffffffffff1673ffffffffffffffffffffffffffffffffffffffff1614610f22576040517f08c379a0000000000000000000000000000000000000000000000000000000008152600401610f19906133f0565b60405180910390fd5b80600a8190555050565b610f3d610f37611764565b83611825565b610f7c576040517f08c379a0000000000000000000000000000000000000000000000000000000008152600401610f7390612ff8565b60405180910390fd5b610f8884848484611e4c565b50505050565b6060610f9982611719565b6000600660008481526020019081526020016000208054610fb990612e31565b80601f0160208091040260200160405190810160405280929190818152602001828054610fe590612e31565b80156110325780601f1061100757610100808354040283529160200191611032565b820191906000526020600020905b81548152906001019060200180831161101557829003601f168201915b505050505090506000611043611ea8565b9050600081510361105857819250505061109b565b60008251111561108d57808260405160200161107592919061344c565b6040516020818303038152906040529250505061109b565b61109684611ebf565b925050505b919050565b606060006110ae6008611c47565b905060008167ffffffffffffffff8111156110cc576110cb612933565b5b60405190808252806020026020018201604052801561110557816020015b6110f2612576565b8152602001906001900390816110ea5790505b50905060005b8281101561124f576000600182611122919061349f565b9050600b60008281526020019081526020016000206040518060a0016040529081600082015481526020016001820160009054906101000a900473ffffffffffffffffffffffffffffffffffffffff1673ffffffffffffffffffffffffffffffffffffffff1673ffffffffffffffffffffffffffffffffffffffff1681526020016002820160009054906101000a900473ffffffffffffffffffffffffffffffffffffffff1673ffffffffffffffffffffffffffffffffffffffff1673ffffffffffffffffffffffffffffffffffffffff168152602001600382015481526020016004820160009054906101000a900460ff1615151515815250508383815181106112305761122f6134d3565b5b602002602001018190525050808061124790613502565b91505061110b565b50809250505090565b606060006112666008611c47565b90506000805b8281101561137e576000600182611283919061349f565b90508573ffffffffffffffffffffffffffffffffffffffff16600b600083815260200190815260200160002060010160009054906101000a900473ffffffffffffffffffffffffffffffffffffffff1673ffffffffffffffffffffffffffffffffffffffff16148061135657508573ffffffffffffffffffffffffffffffffffffffff16600b600083815260200190815260200160002060020160009054906101000a900473ffffffffffffffffffffffffffffffffffffffff1673ffffffffffffffffffffffffffffffffffffffff16145b1561136a57828061136690613502565b9350505b50808061137690613502565b91505061126c565b5060008167ffffffffffffffff81111561139b5761139a612933565b5b6040519080825280602002602001820160405280156113d457816020015b6113c1612576565b8152602001906001900390816113b95790505b5090506000805b848110156116045760006001826113f2919061349f565b90508773ffffffffffffffffffffffffffffffffffffffff16600b600083815260200190815260200160002060010160009054906101000a900473ffffffffffffffffffffffffffffffffffffffff1673ffffffffffffffffffffffffffffffffffffffff1614806114c557508773ffffffffffffffffffffffffffffffffffffffff16600b600083815260200190815260200160002060020160009054906101000a900473ffffffffffffffffffffffffffffffffffffffff1673ffffffffffffffffffffffffffffffffffffffff16145b156115f057600b60008281526020019081526020016000206040518060a0016040529081600082015481526020016001820160009054906101000a900473ffffffffffffffffffffffffffffffffffffffff1673ffffffffffffffffffffffffffffffffffffffff1673ffffffffffffffffffffffffffffffffffffffff1681526020016002820160009054906101000a900473ffffffffffffffffffffffffffffffffffffffff1673ffffffffffffffffffffffffffffffffffffffff1673ffffffffffffffffffffffffffffffffffffffff168152602001600382015481526020016004820160009054906101000a900460ff1615151515815250508484815181106115d6576115d56134d3565b5b602002602001018190525082806115ec90613502565b9350505b5080806115fc90613502565b9150506113db565b5081945050505050919050565b6000600560008473ffffffffffffffffffffffffffffffffffffffff1673ffffffffffffffffffffffffffffffffffffffff16815260200190815260200160002060008373ffffffffffffffffffffffffffffffffffffffff1673ffffffffffffffffffffffffffffffffffffffff16815260200190815260200160002060009054906101000a900460ff16905092915050565b6000600a54905090565b60007f01ffc9a7000000000000000000000000000000000000000000000000000000007bffffffffffffffffffffffffffffffffffffffffffffffffffffffff1916827bffffffffffffffffffffffffffffffffffffffffffffffffffffffff1916149050919050565b61172281611bb3565b611761576040517f08c379a0000000000000000000000000000000000000000000000000000000008152600401611758906130d0565b60405180910390fd5b50565b600033905090565b816004600083815260200190815260200160002060006101000a81548173ffffffffffffffffffffffffffffffffffffffff021916908373ffffffffffffffffffffffffffffffffffffffff160217905550808273ffffffffffffffffffffffffffffffffffffffff166117df83610898565b73ffffffffffffffffffffffffffffffffffffffff167f8c5be1e5ebec7d5bd14f71427d1e84f3dd0314c0f7b2291e5b200ac8c7c3b92560405160405180910390a45050565b60008061183183610898565b90508073ffffffffffffffffffffffffffffffffffffffff168473ffffffffffffffffffffffffffffffffffffffff16148061187357506118728185611611565b5b806118b157508373ffffffffffffffffffffffffffffffffffffffff1661189984610661565b73ffffffffffffffffffffffffffffffffffffffff16145b91505092915050565b8273ffffffffffffffffffffffffffffffffffffffff166118da82610898565b73ffffffffffffffffffffffffffffffffffffffff1614611930576040517f08c379a0000000000000000000000000000000000000000000000000000000008152600401611927906135bc565b60405180910390fd5b600073ffffffffffffffffffffffffffffffffffffffff168273ffffffffffffffffffffffffffffffffffffffff160361199f576040517f08c379a00000000000000000000000000000000000000000000000000000000081526004016119969061364e565b60405180910390fd5b6119ac8383836001611f27565b8273ffffffffffffffffffffffffffffffffffffffff166119cc82610898565b73ffffffffffffffffffffffffffffffffffffffff1614611a22576040517f08c379a0000000000000000000000000000000000000000000000000000000008152600401611a19906135bc565b60405180910390fd5b6004600082815260200190815260200160002060006101000a81549073ffffffffffffffffffffffffffffffffffffffff02191690556001600360008573ffffffffffffffffffffffffffffffffffffffff1673ffffffffffffffffffffffffffffffffffffffff168152602001908152602001600020600082825403925050819055506001600360008473ffffffffffffffffffffffffffffffffffffffff1673ffffffffffffffffffffffffffffffffffffffff16815260200190815260200160002060008282540192505081905550816002600083815260200190815260200160002060006101000a81548173ffffffffffffffffffffffffffffffffffffffff021916908373ffffffffffffffffffffffffffffffffffffffff160217905550808273ffffffffffffffffffffffffffffffffffffffff168473ffffffffffffffffffffffffffffffffffffffff167fddf252ad1be2c89b69c2b068fc378daa952ba7f163c4a11628f55a4df523b3ef60405160405180910390a4611bae8383836001611f2d565b505050565b60008073ffffffffffffffffffffffffffffffffffffffff16611bd583611bf4565b73ffffffffffffffffffffffffffffffffffffffff1614159050919050565b60006002600083815260200190815260200160002060009054906101000a900473ffffffffffffffffffffffffffffffffffffffff169050919050565b6001816000016000828254019250508190555050565b600081600001549050919050565b611c6f828260405180602001604052806000815250611f33565b5050565b611c7c82611bb3565b611cbb576040517f08c379a0000000000000000000000000000000000000000000000000000000008152600401611cb2906136e0565b60405180910390fd5b80600660008481526020019081526020016000209081611cdb91906138ac565b505050565b8173ffffffffffffffffffffffffffffffffffffffff168373ffffffffffffffffffffffffffffffffffffffff1603611d4e576040517f08c379a0000000000000000000000000000000000000000000000000000000008152600401611d45906139ca565b60405180910390fd5b80600560008573ffffffffffffffffffffffffffffffffffffffff1673ffffffffffffffffffffffffffffffffffffffff16815260200190815260200160002060008473ffffffffffffffffffffffffffffffffffffffff1673ffffffffffffffffffffffffffffffffffffffff16815260200190815260200160002060006101000a81548160ff0219169083151502179055508173ffffffffffffffffffffffffffffffffffffffff168373ffffffffffffffffffffffffffffffffffffffff167f17307eab39ab6107e8899845ad3d59bd9653f200f220920489ca2b5937696c3183604051611e3f9190612687565b60405180910390a3505050565b611e578484846118ba565b611e6384848484611f8e565b611ea2576040517f08c379a0000000000000000000000000000000000000000000000000000000008152600401611e9990613a5c565b60405180910390fd5b50505050565b606060405180602001604052806000815250905090565b6060611eca82611719565b6000611ed4611ea8565b90506000815111611ef45760405180602001604052806000815250611f1f565b80611efe84612115565b604051602001611f0f92919061344c565b6040516020818303038152906040525b915050919050565b50505050565b50505050565b611f3d83836121e3565b611f4a6000848484611f8e565b611f89576040517f08c379a0000000000000000000000000000000000000000000000000000000008152600401611f8090613a5c565b60405180910390fd5b505050565b6000611faf8473ffffffffffffffffffffffffffffffffffffffff16612400565b15612108578373ffffffffffffffffffffffffffffffffffffffff1663150b7a02611fd8611764565b8786866040518563ffffffff1660e01b8152600401611ffa9493929190613ad1565b6020604051808303816000875af192505050801561203657506040513d601f19601f820116820180604052508101906120339190613b32565b60015b6120b8573d8060008114612066576040519150601f19603f3d011682016040523d82523d6000602084013e61206b565b606091505b5060008151036120b0576040517f08c379a00000000000000000000000000000000000000000000000000000000081526004016120a790613a5c565b60405180910390fd5b805181602001fd5b63150b7a0260e01b7bffffffffffffffffffffffffffffffffffffffffffffffffffffffff1916817bffffffffffffffffffffffffffffffffffffffffffffffffffffffff19161491505061210d565b600190505b949350505050565b60606000600161212484612423565b01905060008167ffffffffffffffff81111561214357612142612933565b5b6040519080825280601f01601f1916602001820160405280156121755781602001600182028036833780820191505090505b509050600082602001820190505b6001156121d8578080600190039150507f3031323334353637383961626364656600000000000000000000000000000000600a86061a8153600a85816121cc576121cb613b5f565b5b04945060008503612183575b819350505050919050565b600073ffffffffffffffffffffffffffffffffffffffff168273ffffffffffffffffffffffffffffffffffffffff1603612252576040517f08c379a000000000000000000000000000000000000000000000000000000000815260040161224990613bda565b60405180910390fd5b61225b81611bb3565b1561229b576040517f08c379a000000000000000000000000000000000000000000000000000000000815260040161229290613c46565b60405180910390fd5b6122a9600083836001611f27565b6122b281611bb3565b156122f2576040517f08c379a00000000000000000000000000000000000000000000000000000000081526004016122e990613c46565b60405180910390fd5b6001600360008473ffffffffffffffffffffffffffffffffffffffff1673ffffffffffffffffffffffffffffffffffffffff16815260200190815260200160002060008282540192505081905550816002600083815260200190815260200160002060006101000a81548173ffffffffffffffffffffffffffffffffffffffff021916908373ffffffffffffffffffffffffffffffffffffffff160217905550808273ffffffffffffffffffffffffffffffffffffffff16600073ffffffffffffffffffffffffffffffffffffffff167fddf252ad1be2c89b69c2b068fc378daa952ba7f163c4a11628f55a4df523b3ef60405160405180910390a46123fc600083836001611f2d565b5050565b6000808273ffffffffffffffffffffffffffffffffffffffff163b119050919050565b600080600090507a184f03e93ff9f4daa797ed6e38ed64bf6a1f0100000000000000008310612481577a184f03e93ff9f4daa797ed6e38ed64bf6a1f010000000000000000838161247757612476613b5f565b5b0492506040810190505b6d04ee2d6d415b85acef810000000083106124be576d04ee2d6d415b85acef810000000083816124b4576124b3613b5f565b5b0492506020810190505b662386f26fc1000083106124ed57662386f26fc1000083816124e3576124e2613b5f565b5b0492506010810190505b6305f5e1008310612516576305f5e100838161250c5761250b613b5f565b5b0492506008810190505b612710831061253b57612710838161253157612530613b5f565b5b0492506004810190505b6064831061255e576064838161255457612553613b5f565b5b0492506002810190505b600a831061256d576001810190505b80915050919050565b6040518060a0016040528060008152602001600073ffffffffffffffffffffffffffffffffffffffff168152602001600073ffffffffffffffffffffffffffffffffffffffff168152602001600081526020016000151581525090565b6000604051905090565b600080fd5b600080fd5b60007fffffffff0000000000000000000000000000000000000000000000000000000082169050919050565b61261c816125e7565b811461262757600080fd5b50565b60008135905061263981612613565b92915050565b600060208284031215612655576126546125dd565b5b60006126638482850161262a565b91505092915050565b60008115159050919050565b6126818161266c565b82525050565b600060208201905061269c6000830184612678565b92915050565b600081519050919050565b600082825260208201905092915050565b60005b838110156126dc5780820151818401526020810190506126c1565b60008484015250505050565b6000601f19601f8301169050919050565b6000612704826126a2565b61270e81856126ad565b935061271e8185602086016126be565b612727816126e8565b840191505092915050565b6000602082019050818103600083015261274c81846126f9565b905092915050565b6000819050919050565b61276781612754565b811461277257600080fd5b50565b6000813590506127848161275e565b92915050565b6000602082840312156127a05761279f6125dd565b5b60006127ae84828501612775565b91505092915050565b600073ffffffffffffffffffffffffffffffffffffffff82169050919050565b60006127e2826127b7565b9050919050565b6127f2816127d7565b82525050565b600060208201905061280d60008301846127e9565b92915050565b61281c816127d7565b811461282757600080fd5b50565b60008135905061283981612813565b92915050565b60008060408385031215612856576128556125dd565b5b60006128648582860161282a565b925050602061287585828601612775565b9150509250929050565b600080600060608486031215612898576128976125dd565b5b60006128a68682870161282a565b93505060206128b78682870161282a565b92505060406128c886828701612775565b9150509250925092565b6000602082840312156128e8576128e76125dd565b5b60006128f68482850161282a565b91505092915050565b61290881612754565b82525050565b600060208201905061292360008301846128ff565b92915050565b600080fd5b600080fd5b7f4e487b7100000000000000000000000000000000000000000000000000000000600052604160045260246000fd5b61296b826126e8565b810181811067ffffffffffffffff8211171561298a57612989612933565b5b80604052505050565b600061299d6125d3565b90506129a98282612962565b919050565b600067ffffffffffffffff8211156129c9576129c8612933565b5b6129d2826126e8565b9050602081019050919050565b82818337600083830152505050565b6000612a016129fc846129ae565b612993565b905082815260208101848484011115612a1d57612a1c61292e565b5b612a288482856129df565b509392505050565b600082601f830112612a4557612a44612929565b5b8135612a558482602086016129ee565b91505092915050565b60008060408385031215612a7557612a746125dd565b5b600083013567ffffffffffffffff811115612a9357612a926125e2565b5b612a9f85828601612a30565b9250506020612ab085828601612775565b9150509250929050565b612ac38161266c565b8114612ace57600080fd5b50565b600081359050612ae081612aba565b92915050565b60008060408385031215612afd57612afc6125dd565b5b6000612b0b8582860161282a565b9250506020612b1c85828601612ad1565b9150509250929050565b600067ffffffffffffffff821115612b4157612b40612933565b5b612b4a826126e8565b9050602081019050919050565b6000612b6a612b6584612b26565b612993565b905082815260208101848484011115612b8657612b8561292e565b5b612b918482856129df565b509392505050565b600082601f830112612bae57612bad612929565b5b8135612bbe848260208601612b57565b91505092915050565b60008060008060808587031215612be157612be06125dd565b5b6000612bef8782880161282a565b9450506020612c008782880161282a565b9350506040612c1187828801612775565b925050606085013567ffffffffffffffff811115612c3257612c316125e2565b5b612c3e87828801612b99565b91505092959194509250565b600081519050919050565b600082825260208201905092915050565b6000819050602082019050919050565b612c7f81612754565b82525050565b6000612c90826127b7565b9050919050565b612ca081612c85565b82525050565b612caf8161266c565b82525050565b60a082016000820151612ccb6000850182612c76565b506020820151612cde6020850182612c97565b506040820151612cf16040850182612c97565b506060820151612d046060850182612c76565b506080820151612d176080850182612ca6565b50505050565b6000612d298383612cb5565b60a08301905092915050565b6000602082019050919050565b6000612d4d82612c4a565b612d578185612c55565b9350612d6283612c66565b8060005b83811015612d93578151612d7a8882612d1d565b9750612d8583612d35565b925050600181019050612d66565b5085935050505092915050565b60006020820190508181036000830152612dba8184612d42565b905092915050565b60008060408385031215612dd957612dd86125dd565b5b6000612de78582860161282a565b9250506020612df88582860161282a565b9150509250929050565b7f4e487b7100000000000000000000000000000000000000000000000000000000600052602260045260246000fd5b60006002820490506001821680612e4957607f821691505b602082108103612e5c57612e5b612e02565b5b50919050565b7f4552433732313a20617070726f76616c20746f2063757272656e74206f776e6560008201527f7200000000000000000000000000000000000000000000000000000000000000602082015250565b6000612ebe6021836126ad565b9150612ec982612e62565b604082019050919050565b60006020820190508181036000830152612eed81612eb1565b9050919050565b7f4552433732313a20617070726f76652063616c6c6572206973206e6f7420746f60008201527f6b656e206f776e6572206f7220617070726f76656420666f7220616c6c000000602082015250565b6000612f50603d836126ad565b9150612f5b82612ef4565b604082019050919050565b60006020820190508181036000830152612f7f81612f43565b9050919050565b7f4552433732313a2063616c6c6572206973206e6f7420746f6b656e206f776e6560008201527f72206f7220617070726f76656400000000000000000000000000000000000000602082015250565b6000612fe2602d836126ad565b9150612fed82612f86565b604082019050919050565b6000602082019050818103600083015261301181612fd5565b9050919050565b7f546f6b656e20646f6573206e6f74206578697374000000000000000000000000600082015250565b600061304e6014836126ad565b915061305982613018565b602082019050919050565b6000602082019050818103600083015261307d81613041565b9050919050565b7f4552433732313a20696e76616c696420746f6b656e2049440000000000000000600082015250565b60006130ba6018836126ad565b91506130c582613084565b602082019050919050565b600060208201905081810360008301526130e9816130ad565b9050919050565b7f4552433732313a2061646472657373207a65726f206973206e6f74206120766160008201527f6c6964206f776e65720000000000000000000000000000000000000000000000602082015250565b600061314c6029836126ad565b9150613157826130f0565b604082019050919050565b6000602082019050818103600083015261317b8161313f565b9050919050565b7f4e4654206973206e6f7420617661696c61626c6520666f722073616c65000000600082015250565b60006131b8601d836126ad565b91506131c382613182565b602082019050919050565b600060208201905081810360008301526131e7816131ab565b9050919050565b7f506c65617365207061792074686520657861637420707269636520666f72207460008201527f6865204e46540000000000000000000000000000000000000000000000000000602082015250565b600061324a6026836126ad565b9150613255826131ee565b604082019050919050565b600060208201905081810360008301526132798161323d565b9050919050565b7f53656e64207468652073706563696669656420616d6f756e74206f662065746860008201527f6572000000000000000000000000000000000000000000000000000000000000602082015250565b60006132dc6022836126ad565b91506132e782613280565b604082019050919050565b6000602082019050818103600083015261330b816132cf565b9050919050565b7f50726963652063616e6e6f74206265206e656761746976650000000000000000600082015250565b60006133486018836126ad565b915061335382613312565b602082019050919050565b600060208201905081810360008301526133778161333b565b9050919050565b7f4f6e6c7920746865206f776e65722063616e207570646174652074686520707260008201527f6963650000000000000000000000000000000000000000000000000000000000602082015250565b60006133da6023836126ad565b91506133e58261337e565b604082019050919050565b60006020820190508181036000830152613409816133cd565b9050919050565b600081905092915050565b6000613426826126a2565b6134308185613410565b93506134408185602086016126be565b80840191505092915050565b6000613458828561341b565b9150613464828461341b565b91508190509392505050565b7f4e487b7100000000000000000000000000000000000000000000000000000000600052601160045260246000fd5b60006134aa82612754565b91506134b583612754565b92508282019050808211156134cd576134cc613470565b5b92915050565b7f4e487b7100000000000000000000000000000000000000000000000000000000600052603260045260246000fd5b600061350d82612754565b91507fffffffffffffffffffffffffffffffffffffffffffffffffffffffffffffffff820361353f5761353e613470565b5b600182019050919050565b7f4552433732313a207472616e736665722066726f6d20696e636f72726563742060008201527f6f776e6572000000000000000000000000000000000000000000000000000000602082015250565b60006135a66025836126ad565b91506135b18261354a565b604082019050919050565b600060208201905081810360008301526135d581613599565b9050919050565b7f4552433732313a207472616e7366657220746f20746865207a65726f2061646460008201527f7265737300000000000000000000000000000000000000000000000000000000602082015250565b60006136386024836126ad565b9150613643826135dc565b604082019050919050565b600060208201905081810360008301526136678161362b565b9050919050565b7f45524337323155524953746f726167653a2055524920736574206f66206e6f6e60008201527f6578697374656e7420746f6b656e000000000000000000000000000000000000602082015250565b60006136ca602e836126ad565b91506136d58261366e565b604082019050919050565b600060208201905081810360008301526136f9816136bd565b9050919050565b60008190508160005260206000209050919050565b60006020601f8301049050919050565b600082821b905092915050565b6000600883026137627fffffffffffffffffffffffffffffffffffffffffffffffffffffffffffffffff82613725565b61376c8683613725565b95508019841693508086168417925050509392505050565b6000819050919050565b60006137a96137a461379f84612754565b613784565b612754565b9050919050565b6000819050919050565b6137c38361378e565b6137d76137cf826137b0565b848454613732565b825550505050565b600090565b6137ec6137df565b6137f78184846137ba565b505050565b5b8181101561381b576138106000826137e4565b6001810190506137fd565b5050565b601f8211156138605761383181613700565b61383a84613715565b81016020851015613849578190505b61385d61385585613715565b8301826137fc565b50505b505050565b600082821c905092915050565b600061388360001984600802613865565b1980831691505092915050565b600061389c8383613872565b9150826002028217905092915050565b6138b5826126a2565b67ffffffffffffffff8111156138ce576138cd612933565b5b6138d88254612e31565b6138e382828561381f565b600060209050601f8311600181146139165760008415613904578287015190505b61390e8582613890565b865550613976565b601f19841661392486613700565b60005b8281101561394c57848901518255600182019150602085019450602081019050613927565b868310156139695784890151613965601f891682613872565b8355505b6001600288020188555050505b505050505050565b7f4552433732313a20617070726f766520746f2063616c6c657200000000000000600082015250565b60006139b46019836126ad565b91506139bf8261397e565b602082019050919050565b600060208201905081810360008301526139e3816139a7565b9050919050565b7f4552433732313a207472616e7366657220746f206e6f6e20455243373231526560008201527f63656976657220696d706c656d656e7465720000000000000000000000000000602082015250565b6000613a466032836126ad565b9150613a51826139ea565b604082019050919050565b60006020820190508181036000830152613a7581613a39565b9050919050565b600081519050919050565b600082825260208201905092915050565b6000613aa382613a7c565b613aad8185613a87565b9350613abd8185602086016126be565b613ac6816126e8565b840191505092915050565b6000608082019050613ae660008301876127e9565b613af360208301866127e9565b613b0060408301856128ff565b8181036060830152613b128184613a98565b905095945050505050565b600081519050613b2c81612613565b92915050565b600060208284031215613b4857613b476125dd565b5b6000613b5684828501613b1d565b91505092915050565b7f4e487b7100000000000000000000000000000000000000000000000000000000600052601260045260246000fd5b7f4552433732313a206d696e7420746f20746865207a65726f2061646472657373600082015250565b6000613bc46020836126ad565b9150613bcf82613b8e565b602082019050919050565b60006020820190508181036000830152613bf381613bb7565b9050919050565b7f4552433732313a20746f6b656e20616c7265616479206d696e74656400000000600082015250565b6000613c30601c836126ad565b9150613c3b82613bfa565b602082019050919050565b60006020820190508181036000830152613c5f81613c23565b905091905056fea2646970667358221220ac8231ccd9d6780ce237224869b81cebc3271c2aeb0188cace5afe0a7241b09564736f6c63430008110033",
  "linkReferences": {},
  "deployedLinkReferences": {}
}